{
  "_format": "hh-sol-artifact-1",
  "contractName": "MedicalDataAccess",
  "sourceName": "contracts/MedicalDataAccess.sol",
  "abi": [
    {
      "anonymous": false,
      "inputs": [
        {
          "indexed": true,
          "internalType": "address",
          "name": "patient",
          "type": "address"
        },
        {
          "indexed": true,
          "internalType": "address",
          "name": "doctor",
          "type": "address"
        }
      ],
      "name": "AccessGranted",
      "type": "event"
    },
    {
      "anonymous": false,
      "inputs": [
        {
          "indexed": true,
          "internalType": "address",
          "name": "patient",
          "type": "address"
        },
        {
          "indexed": true,
          "internalType": "address",
          "name": "doctor",
          "type": "address"
        }
      ],
      "name": "AccessRevoked",
      "type": "event"
    },
    {
      "inputs": [
        {
          "internalType": "address",
          "name": "doctor",
          "type": "address"
        }
      ],
      "name": "authorizeDoctor",
      "outputs": [],
      "stateMutability": "nonpayable",
      "type": "function"
    },
    {
      "inputs": [
        {
          "internalType": "address",
          "name": "doctor",
          "type": "address"
        }
      ],
      "name": "isDoctor",
      "outputs": [
        {
          "internalType": "bool",
          "name": "",
          "type": "bool"
        }
      ],
      "stateMutability": "view",
      "type": "function"
    },
    {
      "inputs": [
        {
          "internalType": "address",
          "name": "patient",
          "type": "address"
        },
        {
          "internalType": "address",
          "name": "doctor",
          "type": "address"
        }
      ],
      "name": "isDoctorAuthorized",
      "outputs": [
        {
          "internalType": "bool",
          "name": "",
          "type": "bool"
        }
      ],
      "stateMutability": "view",
      "type": "function"
    },
    {
      "inputs": [
        {
          "internalType": "address",
          "name": "patient",
          "type": "address"
        }
      ],
      "name": "isPatient",
      "outputs": [
        {
          "internalType": "bool",
          "name": "",
          "type": "bool"
        }
      ],
      "stateMutability": "view",
      "type": "function"
    },
    {
      "inputs": [
        {
          "internalType": "address",
          "name": "doctor",
          "type": "address"
        }
      ],
      "name": "registerDoctor",
      "outputs": [],
      "stateMutability": "nonpayable",
      "type": "function"
    },
    {
      "inputs": [],
      "name": "registerPatient",
      "outputs": [],
      "stateMutability": "nonpayable",
      "type": "function"
    },
    {
      "inputs": [
        {
          "internalType": "address",
          "name": "doctor",
          "type": "address"
        }
      ],
      "name": "revokeDoctorAuthorization",
      "outputs": [],
      "stateMutability": "nonpayable",
      "type": "function"
    }
  ],
  "bytecode": "0x6080604052348015600f57600080fd5b506107538061001f6000396000f3fe608060405234801561001057600080fd5b506004361061007d5760003560e01c806379a94bd21161005b57806379a94bd2146100bd578063822d3885146100e45780638f9c79ed146100ec578063996440c61461011857600080fd5b80632b95c5fa1461008257806358c9202c14610097578063699ca998146100aa575b600080fd5b6100956100903660046106c8565b610144565b005b6100956100a53660046106c8565b6102e2565b6100956100b83660046106c8565b610428565b6100d06100cb3660046106ea565b6104b8565b604051901515815260200160405180910390f35b610095610630565b6100d06100fa3660046106c8565b6001600160a01b031660009081526020819052604090205460ff1690565b6100d06101263660046106c8565b6001600160a01b031660009081526001602052604090205460ff1690565b3360009081526020819052604090205460ff166101ce5760405162461bcd60e51b815260206004820152602660248201527f4f6e6c792070617469656e74732063616e207265766f6b6520617574686f726960448201527f7a6174696f6e000000000000000000000000000000000000000000000000000060648201526084015b60405180910390fd5b6001600160a01b03811660009081526001602052604090205460ff166102365760405162461bcd60e51b815260206004820152601f60248201527f54686973206973206e6f742061207265676973746572656420646f63746f720060448201526064016101c5565b61024033826104b8565b61028c5760405162461bcd60e51b815260206004820152601e60248201527f446f63746f72206469646e742068617665206175746f72697a6174696f6e000060448201526064016101c5565b3360008181526002602090815260408083206001600160a01b0386168085529252808320805460ff19169055519092917f825c8be24eb0df19500f63e86c29e7d0d951e73056b889b891d85e40938d9b6e91a350565b3360009081526020819052604090205460ff166103675760405162461bcd60e51b815260206004820152602360248201527f4f6e6c792070617469656e74732063616e20617574686f72697a6520646f637460448201527f6f7273000000000000000000000000000000000000000000000000000000000060648201526084016101c5565b6001600160a01b03811660009081526001602052604090205460ff166103cf5760405162461bcd60e51b815260206004820152601f60248201527f54686973206973206e6f742061207265676973746572656420646f63746f720060448201526064016101c5565b3360008181526002602090815260408083206001600160a01b0386168085529252808320805460ff19166001179055519092917f9f520b3bfc56d06f7065d10b4683b3f57ac8895d5026cd176dee95ce1454cb8d91a350565b6001600160a01b03811660009081526001602052604090205460ff16156104915760405162461bcd60e51b815260206004820152601960248201527f446f63746f7220616c726561647920726567697374657265640000000000000060448201526064016101c5565b6001600160a01b03166000908152600160208190526040909120805460ff19169091179055565b6001600160a01b03821660009081526020819052604081205460ff166105205760405162461bcd60e51b815260206004820181905260248201527f54686973206973206e6f74206120726567697374657265642070617469656e7460448201526064016101c5565b6001600160a01b03821660009081526001602052604090205460ff166105885760405162461bcd60e51b815260206004820152601f60248201527f54686973206973206e6f742061207265676973746572656420646f63746f720060448201526064016101c5565b3360009081526020819052604090205460ff16806105b557503360009081526001602052604090205460ff165b6106015760405162461bcd60e51b815260206004820152600d60248201527f44656e696564206163636573730000000000000000000000000000000000000060448201526064016101c5565b506001600160a01b03918216600090815260026020908152604080832093909416825291909152205460ff1690565b3360009081526020819052604090205460ff16156106905760405162461bcd60e51b815260206004820152601a60248201527f50617469656e7420616c7265616479207265676973746572656400000000000060448201526064016101c5565b336000908152602081905260409020805460ff19166001179055565b80356001600160a01b03811681146106c357600080fd5b919050565b6000602082840312156106da57600080fd5b6106e3826106ac565b9392505050565b600080604083850312156106fd57600080fd5b610706836106ac565b9150610714602084016106ac565b9050925092905056fea26469706673582212209250b407d4c0a802e633314dd80be2906ff9615c529f2fd90779ed548b06e5b664736f6c634300081b0033",
  "linkReferences": {},
  "deployedLinkReferences": {}
}